:100000000C942A000C9447000C9410040C943D04AA
:100010000C9447000C9447000C9447000C94470044
:100020000C9447000C9447000C94F0040C94C70403
:100030000C9447000C94B5020C9447000C944700B4
:100040000C9447000C9447000C9447000C94470014
:100050000C94470011241FBECFE5D8E0DEBFCDBF12
:1000600010E0A0E6B0E0E8E2FEE002C005900D92EC
:10007000AC3AB107D9F720E0ACEAB0E001C01D927C
:10008000A73BB207E1F70E9404020C9412070C94FC
:10009000000041E063E080E00E94FF02089563E019
:1000A00080E00E947003089563E080E00E94A40352
:1000B0000895CF93C82F61E081E00E94A40362E01D
:1000C00081E00E94A40363E081E00E94A4038BB35B
:1000D0009C2F907F8F70892B8BBB63E081E00E9407
:1000E000700389EF90E00197F1F700C0000063E032
:1000F00081E00E94A40320E1C29FC00111249BB3B0
:100100009F70892B8BBB63E081E00E94700389EFB5
:1001100090E00197F1F700C0000063E081E00E94E9
:10012000A40383EF91E00197F1F700C00000CF91A5
:10013000089541E061E081E00E94FF0241E062E059
:1001400081E00E94FF0241E063E081E00E94FF0243
:1001500041E064E080E00E94FF0241E065E080E071
:100160000E94FF0241E066E080E00E94FF0241E061
:1001700067E080E00E94FF028BE49DE10197F1F7C8
:1001800000C0000082E00E94590085EA9EE00197CD
:10019000F1F700C0000088E20E94590089EF90E06A
:1001A0000197F1F700C000008EE00E94590089EF2E
:1001B00090E00197F1F700C0000081E00E94590033
:1001C00085EA9EE00197F1F700C0000083E00E94FD
:1001D000590083EF91E00197F1F700C00000089506
:1001E000CF93C82F61E081E00E94700362E081E05C
:1001F0000E94A40363E081E00E94A4038BB39C2FC0
:10020000907F8F70892B8BBB63E081E00E9470032D
:1002100089EF90E00197F1F700C0000063E081E012
:100220000E94A40320E1C29FC00111249BB39F70D0
:10023000892B8BBB63E081E00E94700389EF90E023
:100240000197F1F700C0000063E081E00E94A40381
:1002500083EF91E00197F1F700C00000CF9108957E
:10026000CF93DF93EC0103C00E94F00021968881B8
:100270008111FACFDF91CF910895CF93DF93CDB75E
:10028000DEB72A970FB6F894DEBF0FBECDBF2AE0C7
:1002900030E0AE014F5F5F4F0E94C606CE0101966F
:1002A0000E9430012A960FB6F894DEBF0FBECDBF74
:1002B000DF91CF91089581E00E94590008959FEF4A
:1002C000960F9F3080F4823071F4813019F08230C3
:1002D00031F008958FE7860F0E94590008958FEB43
:1002E000860F0E9459000895813051F018F0823035
:1002F00069F0089541E062E082E00E94FF02089503
:1003000041E067E082E00E94FF02089541E063E07F
:1003100083E00E94FF020895813049F018F0823096
:1003200059F0089562E082E00E947003089567E04A
:1003300082E00E947003089563E083E00E947003EE
:100340000895813049F018F0823059F0089562E044
:1003500082E00E94A403089567E082E00E94A40363
:10036000089563E083E00E94A40308950E944F0073
:100370002FEF89E698E1215080409040E1F700C0DE
:1003800000000E9454002FEF89E698E12150804040
:100390009040E1F700C00000E9CFCF93DF93C0E0C9
:1003A000D0E013C06AE083E00E94840462E383E04B
:1003B0000E94840464E683E00E9484048FE39CE945
:1003C0000197F1F700C000002196C436D10554F31F
:1003D000C4E6D0E013C064E683E00E94840462E3D4
:1003E00083E00E9484046AE083E00E9484048FE337
:1003F0009CE90197F1F700C0000021971C161D062B
:1004000054F3DF91CF9108950E94DC030E948B0585
:1004100083E00E94660483E00E94A8040E944900D1
:1004200063E081E00E94C4020E94990080E00E9483
:10043000740181E00E94740182E00E947401609165
:10044000610080E00E94DF036091600081E00E9413
:10045000DF0380E00E94F903182F81E00E94F90376
:10046000082FC0E0D0E00E945B012FEF83ED90E306
:10047000215080409040E1F700C0000082E690E00B
:100480000E94300161E082E00E945F0183E790E01A
:100490000E9430010E949805809361000E94980597
:1004A00080936000C230D1050CF057C0909161007C
:1004B00019134BC0081349C081E00E94E802EC0107
:1004C000813022E0920724F080E00E948C0106C077
:1004D000883C91051CF480E00E94A1010E945B0110
:1004E0008FEF93ED20E3815090402040E1F700C072
:1004F000000065E081E00E945F018FEF93ED20E353
:10050000815090402040E1F700C0000085E890E075
:100510000E9430018FEF93ED20E381509040204006
:10052000E1F700C00000BE01DD0F880B990B0E94AF
:100530003D018FEF93ED20E3815090402040E1F7A3
:1005400000C000000E94CD01B7CF0E945B018BE884
:1005500090E00E943001219686CF0E945B018CE9D9
:1005600090E00E9430010E94B6011F920F920FB6D8
:100570000F9211248F938CB18093B6008F910F90BE
:100580000FBE0F901F901895813059F018F08230EF
:1005900079F014C087B18F7787B987B18F7B87B91E
:1005A0000DC087B18F7787B987B1806487B906C0DE
:1005B00087B1806887B987B1806487B987B18F7D3B
:1005C00087B986B1682B66B986B1806886B9089507
:1005D0009AB321E030E0082E02C0220F331F0A94A4
:1005E000E2F7209529232ABB97B1892B87B986B1D9
:1005F000806486B9349BFECF84B195B108954130B3
:10060000A9F581110BC02AB381E090E002C0880FE8
:10061000991F6A95E2F7822B8ABB0895813059F4BD
:1006200027B381E090E002C0880F991F6A95E2F736
:10063000822B87BB0895823059F424B381E090E087
:1006400002C0880F991F6A95E2F7822B84BB089538
:10065000833009F044C021B381E090E002C0880FEC
:10066000991F6A95E2F7822B81BB0895411137C02B
:1006700081110CC02AB381E090E002C0880F991F5D
:100680006A95E2F7809582238ABB0895813061F4F0
:1006900027B381E090E002C0880F991F6A95E2F7C6
:1006A0008095822387BB0895823061F424B381E072
:1006B00090E002C0880F991F6A95E2F78095822327
:1006C00084BB0895833059F421B381E090E002C0E7
:1006D000880F991F6A95E2F78095822381BB089560
:1006E00081110BC02BB381E090E002C0880F991FED
:1006F0006A95E2F7822B8BBB0895813059F428B3B9
:1007000081E090E002C0880F991F6A95E2F7822B82
:1007100088BB0895823059F425B381E090E002C08F
:10072000880F991F6A95E2F7822B85BB0895833065
:1007300051F422B381E090E002C0880F991F6A95BE
:10074000E2F7822B82BB089581110CC02BB381E0AC
:1007500090E002C0880F991F6A95E2F78095822386
:100760008BBB0895813061F428B381E090E002C032
:10077000880F991F6A95E2F78095822388BB0895B8
:10078000823061F425B381E090E002C0880F991FA8
:100790006A95E2F78095822385BB0895833059F4EA
:1007A00022B381E090E002C0880F991F6A95E2F7BA
:1007B0008095822382BB08950E9419050895CF93E6
:1007C000DF93D82FC62F0E941F0581E50E943F05A9
:1007D0008D2F0E9466058C2F0E9466050E94880559
:1007E0008FE39CE90197F1F700C00000DF91CF9102
:1007F0000895CF93C82F0E941F0581E50E943F05F1
:100800008C2F0E9466050E942F0581E50E945105EC
:100810000E947705C82F0E9488058C2FCF910895DC
:100820001F920F920FB60F9211242F933F934F9365
:100830005F936F937F938F939F93AF93BF93EF9348
:10084000FF938091AE009091AF00892B29F0E09149
:10085000B000F091B1000995FF91EF91BF91AF9178
:100860009F918F917F916F915F914F913F912F91C8
:100870000F900FBE0F901F9018951F920F920FB6FA
:100880000F9211242F933F934F935F936F937F9316
:100890008F939F93AF93BF93EF93FF93E091AC003F
:1008A000F091AD00309709F00995FF91EF91BF915C
:1008B000AF919F918F917F916F915F914F913F91F8
:1008C0002F910F900FBE0F901F901895813059F007
:1008D00028F0823071F0833091F0089512BE87B312
:1008E000886087BB08951DBC1CBC81B3806281BB3E
:1008F00008951DBC1CBC81B3806181BB089514BCEC
:1009000081B3806881BB0895CF93C82F70E080E0E9
:1009100090E00E94CD0523E333E343E250E40E94DC
:1009200031060E949C05C13041F028F0C23049F0E8
:10093000C33059F00BC06CBF09C070E07BBD6ABD0D
:1009400005C070E079BD68BD01C063BDCF91089559
:10095000813049F028F0823081F08330A9F0089589
:1009600081E683BF08958FB580688FBD8FB58160A4
:100970008FBD8EB581608EBD08958FB580628FBDAD
:100980008EB581608EBD089581E685BD08951F9264
:100990000F920FB60F9211242F933F934F935F93B3
:1009A0006F937F938F939F93AF93BF93EF93FF9337
:1009B000E091B400F091B500309709F00995FF91EE
:1009C000EF91BF91AF919F918F917F916F915F91C7
:1009D0004F913F912F910F900FBE0F901F90189540
:1009E0001F920F920FB60F9211242F933F934F93A4
:1009F0005F936F937F938F939F93AF93BF93EF9387
:100A0000FF93E091B200F091B300309709F009959F
:100A1000FF91EF91BF91AF919F918F917F916F91D6
:100A20005F914F913F912F910F900FBE0F901F90AC
:100A300018958CE080B986B7846086BF089584EAF3
:100A400086BF81B1887F8830E1F72FEF81EE94E097
:100A5000215080409040E1F700C00000089584EAF2
:100A600086BF81B1887F8031E1F72FEF81EE94E07E
:100A7000215080409040E1F700C000000895880FA9
:100A800083B984E886BF81B1887F8831E1F72FEF91
:100A900081EE94E0215080409040E1F700C00000DA
:100AA000089590E0880F991F816083B984E886BF1C
:100AB00081B1887F8034E1F72FEF81EE94E02150FF
:100AC00080409040E1F700C00000089583B984E8B9
:100AD00086BF81B1887F8832E1F72FEF81EE94E005
:100AE000215080409040E1F700C00000089584E864
:100AF00086BF81B1887F8835E1F72FEF81EE94E0E2
:100B0000215080409040E1F700C0000083B108957B
:100B100084E986BF089581B38E7F81BB81B38260F3
:100B200081BB88E18AB986EA80BD87E689B90895E4
:100B30005F9BFECF8CB108950E94100688F09F57EE
:100B400098F0B92F9927B751B0F0E1F0660F771FF1
:100B5000881F991F1AF0BA95C9F714C0B13091F0E7
:100B60000E942A06B1E008950C942A06672F782F78
:100B70008827B85F39F0B93FCCF3869577956795AC
:100B8000B395D9F73EF490958095709561957F4F18
:100B90008F4F9F4F0895E89409C097FB3EF49095BE
:100BA0008095709561957F4F8F4F9F4F9923A9F046
:100BB000F92F96E9BB279395F695879577956795D5
:100BC000B795F111F8CFFAF4BB0F11F460FF1BC019
:100BD0006F5F7F4F8F4F9F4F16C0882311F096E9AC
:100BE00011C0772321F09EE8872F762F05C066235A
:100BF00071F096E8862F70E060E02AF09A95660F13
:100C0000771F881FDAF7880F9695879597F90895CB
:100C100057FD9058440F551F59F05F3F71F04795AD
:100C2000880F97FB991F61F09F3F79F08795089592
:100C3000121613061406551FF2CF4695F1DF08C0B1
:100C4000161617061806991FF1CF869571056105CE
:100C500008940895E894BB2766277727CB0197F976
:100C600008950E9444060C94B5060E94A70638F029
:100C70000E94AE0620F0952311F00C949E060C9471
:100C8000A40611240C942B060E94080670F3959F6D
:100C9000C1F3950F50E0551F629FF001729FBB2773
:100CA000F00DB11D639FAA27F00DB11DAA1F649F0F
:100CB0006627B00DA11D661F829F2227B00DA11DC2
:100CC000621F739FB00DA11D621F839FA00D611D48
:100CD000221F749F3327A00D611D231F849F600D69
:100CE000211D822F762F6A2F11249F5750409AF092
:100CF000F1F088234AF0EE0FFF1FBB1F661F771F1E
:100D0000881F91505040A9F79E3F510580F00C94E8
:100D10009E060C942B065F3FE4F3983ED4F3869531
:100D200077956795B795F795E7959F5FC1F7FE2B88
:100D3000880F911D9695879597F9089597F99F6764
:100D400080E870E060E008959FEF80EC0895002453
:100D50000A941616170618060906089500240A9420
:100D600012161306140605060895092E0394000CA6
:100D700011F4882352F0BB0F40F4BF2B11F460FF35
:100D800004C06F5F7F4F8F4F9F4F0895253231050D
:100D900020F4223010F00C94D106FA011082CA011E
:100DA0000895BB272A3051F4992342F4BDE290956F
:100DB0008095709561957F4F8F4F9F4F0C94E10602
:100DC000BB27FA01A62F6217710581059105330B28
:100DD00030FB66F0AA27660F771F881F991FAA1F8E
:100DE000A21710F0A21B63953850A9F7A05DAA3393
:100DF00008F0A95DA19336F7B111B1931082CA0131
:100E00000C940207DC01FC01672F71917723E1F755
:100E1000329704C07C916D9370836291AE17BF07C7
:080E2000C8F30895F894FFCF18
:100E28006161506C6561736520656E7465722074CC
:100E3800686520757365726E616D6520616E6420EA
:100E4800706173730054454D503D00656E74657252
:100E5800207468656D20616761696E0074726961EC
:0C0E68006C732065786365656465640048
:00000001FF
