S01700004763634170706C69636174696F6E322E737265635A
S11300000C942A000C9447000C94DE030C940B040B
S11300100C9447000C9447000C9447000C94470040
S11300200C9447000C9447000C94B6040C948D0473
S11300300C9447000C9447000C9447000C94470020
S11300400C9447000C9447000C9447000C94470010
S11300500C94470011241FBECFE5D8E0DEBFCDBF0E
S113006010E0A0E6B0E0EAE5FAE002C005900D92E7
S1130070A638B107D9F720E0A6E8B0E001C01D9288
S1130080A339B207E1F70E94A3010C942B050C9449
S1130090000041E063E080E00E94C202089563E052
S11300A080E00E947203089563E080E00E94A6034A
S11300B00895CF93C82F61E081E00E94A60362E017
S11300C081E00E94A60363E081E00E94A6038BB353
S11300D09C2F907F8F70892B8BBB63E081E00E9403
S11300E0720389EF90E00197F1F700C0000063E02C
S11300F081E00E94A60320E1C29FC00111249BB3AA
S11301009F70892B8BBB63E081E00E94720389EFAF
S113011090E00197F1F700C0000063E081E00E94E5
S1130120A60383EF91E00197F1F700C00000CF919F
S1130130089541E061E081E00E94C20241E062E092
S113014081E00E94C20241E063E081E00E94C202B9
S113015041E064E080E00E94C20241E065E080E0AA
S11301600E94C20241E066E080E00E94C20241E0D7
S113017067E080E00E94C2028BE49DE10197F1F701
S113018000C0000082E00E94590085EA9EE00197C9
S1130190F1F700C0000088E20E94590089EF90E066
S11301A00197F1F700C000008EE00E94590089EF2A
S11301B090E00197F1F700C0000081E00E9459002F
S11301C085EA9EE00197F1F700C0000083E00E94F9
S11301D0590083EF91E00197F1F700C00000089502
S11301E0CF93C82F61E081E00E94720362E081E056
S11301F00E94A60363E081E00E94A6038BB39C2FB8
S1130200907F8F70892B8BBB63E081E00E94720327
S113021089EF90E00197F1F700C0000063E081E00E
S11302200E94A60320E1C29FC00111249BB39F70CA
S1130230892B8BBB63E081E00E94720389EF90E01D
S11302400197F1F700C0000063E081E00E94A6037B
S113025083EF91E00197F1F700C00000CF9108957A
S1130260CF93DF93EC0103C00E94F00021968881B4
S11302708111FACFDF91CF910895CF93DF93CDB75A
S1130280DEB72A970FB6F894DEBF0FBECDBF2AE0C3
S113029030E0AE014F5F5F4F0E94DF04CE01019654
S11302A00E9430012A960FB6F894DEBF0FBECDBF70
S11302B0DF91CF91089581E00E94590008959FEF46
S11302C0960F9F3080F4823071F4813019F08230BF
S11302D031F008958FE7860F0E94590008958FEB3F
S11302E0860F0E9459000895813051F018F0823031
S11302F069F0089540E060E081E00E94C202089540
S113030040E066E083E00E94C202089540E062E0BB
S113031083E00E94C2020895813049F018F08230CF
S113032059F00FC060E081E00E943303089566E055
S113033083E00E943303089562E083E00E94330364
S1130340089580E00895CF93DF9300D000D000D0CB
S1130350CDB7DEB70E94990082E00E94740163E089
S113036081E00E9487020E944900198281E08A8309
S113037095E09C838D831E821B8240E051E060E007
S113038075E090E00E944A046AEF70E080E00E9409
S113039089040E943C0480E00E948C0190E020913A
S11303A088002A3F98F18130910581F510928800E8
S11303B080918600909187008C3391052CF40196EE
S11303C090938700809386008091860090918700A7
S11303D0019690938700809386000E944F000E94AC
S11303E05B0187EA91E60197F1F700C0000061E044
S11303F081E00E945F0187EA91E60197F1F700C06E
S1130400000080E690E00E943001C5CF2091880072
S11304102A3F08F2892B09F0BECF10928800809100
S11304208600909187008C3391050CF06BC0019687
S113043090938700809386000E945B018FE493EC85
S11304400197F1F700C0000061E081E00E945F01C4
S113045087EA91E60197F1F700C000008CE690E08E
S11304600E94300187EA91E60197F1F700C000008D
S11304706091860070918700072E000C880B990B01
S11304800E943D0187EA91E60197F1F700C0000060
S113049084E790E00E94300187EA91E60197F1F742
S11304A000C0000061E082E00E945F0187EA91E6FB
S11304B00197F1F700C0000088E790E00E94300146
S11304C087EA91E60197F1F700C0000081E00E94FD
S11304D0AB02BC01990F880B990B0E943D0187EA7E
S11304E091E60197F1F700C0000083E490E00E94D8
S11304F0300187EA91E60197F1F700C000000E94FD
S1130500540049CF109287001092860044CF813066
S113051059F018F0823079F014C087B18F7787B919
S113052087B18F7B87B90DC087B18F7787B987B1C2
S1130530806487B906C087B1806887B987B1806451
S113054087B987B18F7D87B986B1682B66B986B1C3
S1130550806886B908959AB321E030E0082E02C07D
S1130560220F331F0A94E2F7209529232ABB97B15F
S1130570892B87B986B1806486B9349BFECF84B158
S113058095B108954130A9F581110BC02AB381E0DA
S113059090E002C0880F991F6A95E2F7822B8ABB0C
S11305A00895813059F427B381E090E002C0880FA8
S11305B0991F6A95E2F7822B87BB0895823059F41C
S11305C024B381E090E002C0880F991F6A95E2F796
S11305D0822B84BB0895833009F044C021B381E0A9
S11305E090E002C0880F991F6A95E2F7822B81BBC5
S11305F00895411137C081110CC02AB381E090E005
S113060002C0880F991F6A95E2F7809582238ABBFE
S11306100895813061F427B381E090E002C0880F2F
S1130620991F6A95E2F78095822387BB08958230EB
S113063061F424B381E090E002C0880F991F6A95A9
S1130640E2F78095822384BB0895833059F421B363
S113065081E090E002C0880F991F6A95E2F78095C7
S1130660822381BB089581110DC089B3282F30E006
S113067081E090E002C0880F991F6A95E2F7822317
S113068093230895813069F486B3282F30E081E004
S113069090E002C0880F991F6A95E2F782239323A2
S11306A00895823069F483B3282F30E081E090E02C
S11306B002C0880F991F6A95E2F782239323089555
S11306C0833069F480B3282F30E081E090E002C0E9
S11306D0880F991F6A95E2F782239323089580E097
S11306E090E0089581110BC02BB381E090E002C02B
S11306F0880F991F6A95E2F7822B8BBB089581308E
S113070059F428B381E090E002C0880F991F6A95DC
S1130710E2F7822B88BB0895823059F425B381E037
S113072090E002C0880F991F6A95E2F7822B85BB7F
S11307300895833051F422B381E090E002C0880F21
S1130740991F6A95E2F7822B82BB089581110CC030
S11307502BB381E090E002C0880F991F6A95E2F7FD
S1130760809582238BBB0895813061F428B381E0A6
S113077090E002C0880F991F6A95E2F78095822362
S113078088BB0895823061F425B381E090E002C013
S1130790880F991F6A95E2F78095822385BB089597
S11307A0833059F422B381E090E002C0880F991F8E
S11307B06A95E2F78095822382BB08951F920F9277
S11307C00FB60F9211242F933F934F935F936F9320
S11307D07F938F939F93AF93BF93EF93FF938091F6
S11307E08B0090918C00892B29F0E0918D00F09181
S11307F08E000995FF91EF91BF91AF919F918F91D9
S11308007F916F915F914F913F912F910F900FBE08
S11308100F901F9018951F920F920FB60F921124EC
S11308202F933F934F935F936F937F938F939F93F4
S1130830AF93BF93EF93FF93E0918900F0918A0007
S1130840309709F00995FF91EF91BF91AF919F9176
S11308508F917F916F915F914F913F912F910F9065
S11308600FBE0F901F9018958FB780688FBF0895A3
S11308708FB78F778FBF08950E9438048BB7806439
S11308808BBF85B7826085BF85B78E7F85BF0E9489
S113089034040895CF93DF9300D000D000D0CDB7B7
S11308A0DEB749835A836B837C838D839E83411196
S11308B027C023B7962F40E1949FC0011124872BB2
S11308C0822B83BF29B73D819E81892F90E0880FB9
S11308D0991F832B822B89BF8D81811103C08E8147
S11308E0882319F08FB780688FBF8A81882329F005
S11308F0813031F483B783BF03C083B7886083BF7B
S113090026960FB6F894DEBF0FBECDBFDF91CF9110
S11309100895811101C062BF08951F920F920FB60E
S11309200F9211242F933F934F935F936F937F9371
S11309308F939F93AF93BF93EF93FF93E0919100B5
S1130940F0919200309709F00995FF91EF91BF91D2
S1130950AF919F918F917F916F915F914F913F9153
S11309602F910F900FBE0F901F9018951F920F920A
S11309700FB60F9211242F933F934F935F936F936E
S11309807F938F939F93AF93BF93EF93FF93E091E4
S11309908F00F0919000309709F00995FF91EF9145
S11309A0BF91AF919F918F917F916F915F914F9183
S11309B03F912F910F900FBE0F901F9018952532E5
S11309C0310520F4223010F00C94EA04FA0110826C
S11309D0CA010895BB272A3051F4992342F4BDE299
S11309E090958095709561957F4F8F4F9F4F0C9494
S11309F0FA04BB27FA01A62F621771058105910538
S1130A00330B30FB66F0AA27660F771F881F991FE8
S1130A10AA1FA21710F0A21B63953850A9F7A05D76
S1130A20AA3308F0A95DA19336F7B111B1931082EE
S1130A30CA010C941B05DC01FC01672F719177231B
S1130A40E1F7329704C07C916D9370836291AE1785
S10D0A50BF07C8F30895F894FFCF20
S1130A5A446F6F72206F70656E65640054696D65CA
S1130A6A203D20007365630054656D70726574756A
S1090A7A7265203D00003E
S9030000FC
